{
  "transactions": [
    {
      "hash": "0x0f960d2f68fc4d35ad0ef3c86ab3cb222c38639a499eb8649aa012895de63b68",
      "transactionType": "CALL",
      "contractName": null,
      "contractAddress": "0x20c20889815e89b43400c330955c100cea480ead",
      "function": "addSupportedChain(uint64,address,address)",
      "arguments": [
        "14767482510784806043",
        "0xdE808A7465d990D514d5e8e0Af4D8b900440F043",
        "0x3a99A1B72d26F8E2C73700B1e41C39CF943Bb986"
      ],
      "transaction": {
        "from": "0x36716c8c5d1ae680c78bd0ecc230896556399713",
        "to": "0x20c20889815e89b43400c330955c100cea480ead",
        "gas": "0x289a2",
        "value": "0x0",
        "input": "0x3e40b660000000000000000000000000000000000000000000000000ccf0a31a221f3c9b000000000000000000000000de808a7465d990d514d5e8e0af4d8b900440f0430000000000000000000000003a99a1b72d26f8e2c73700b1e41c39cf943bb986",
        "nonce": "0xd6",
        "chainId": "0xaa36a7"
      },
      "additionalContracts": [],
      "isFixedGasLimit": false
    },
    {
      "hash": "0x5d52c87a300b9dc0de15f2cc35925a1d8985c6dc6cb29691deb572336a74b8a5",
      "transactionType": "CALL",
      "contractName": null,
      "contractAddress": "0x74e6781dda5a0d98f8bb55abf1bd12b42666af76",
      "function": "addRemoteChain(uint64)",
      "arguments": [
        "14767482510784806043"
      ],
      "transaction": {
        "from": "0x36716c8c5d1ae680c78bd0ecc230896556399713",
        "to": "0x74e6781dda5a0d98f8bb55abf1bd12b42666af76",
        "gas": "0x20de0",
        "value": "0x0",
        "input": "0x71af4edd000000000000000000000000000000000000000000000000ccf0a31a221f3c9b",
        "nonce": "0xd7",
        "chainId": "0xaa36a7"
      },
      "additionalContracts": [],
      "isFixedGasLimit": false
    },
    {
      "hash": "0x9c8b9e7ced0936960e49df32281f9465df7edc4364648f7bfbc9367f41273087",
      "transactionType": "CALL",
      "contractName": "CCIPReserveMessenger",
      "contractAddress": "0x902d11abdf1bf2bb8f930833d4f266af42cafd60",
      "function": "addPeer(uint64,address)",
      "arguments": [
        "14767482510784806043",
        "0x609C888353aebEc4C4971a5d05Af4e92a94b1cAA"
      ],
      "transaction": {
        "from": "0x36716c8c5d1ae680c78bd0ecc230896556399713",
        "to": "0x902d11abdf1bf2bb8f930833d4f266af42cafd60",
        "gas": "0x26d80",
        "value": "0x0",
        "input": "0xccfccdb7000000000000000000000000000000000000000000000000ccf0a31a221f3c9b000000000000000000000000609c888353aebec4c4971a5d05af4e92a94b1caa",
        "nonce": "0xd8",
        "chainId": "0xaa36a7"
      },
      "additionalContracts": [],
      "isFixedGasLimit": false
    },
    {
      "hash": "0x698da2be3a0cdd1929f27afb5e567faad4e48265f3876a8f4cb2b5cffcb7bd12",
      "transactionType": "CALL",
      "contractName": null,
      "contractAddress": "0xd8d301955aeba52b81ed83a40f5571812c2c76e9",
      "function": "addPeer(uint64,address)",
      "arguments": [
        "14767482510784806043",
        "0x1D4f7B04CeF73849f33Ea0F87c67f876B09bd36D"
      ],
      "transaction": {
        "from": "0x36716c8c5d1ae680c78bd0ecc230896556399713",
        "to": "0xd8d301955aeba52b81ed83a40f5571812c2c76e9",
        "gas": "0x26cf1",
        "value": "0x0",
        "input": "0xccfccdb7000000000000000000000000000000000000000000000000ccf0a31a221f3c9b0000000000000000000000001d4f7b04cef73849f33ea0f87c67f876b09bd36d",
        "nonce": "0xd9",
        "chainId": "0xaa36a7"
      },
      "additionalContracts": [],
      "isFixedGasLimit": false
    }
  ],
  "receipts": [
    {
      "status": "0x1",
      "cumulativeGasUsed": "0x23a95bc",
      "logs": [],
      "logsBloom": "0x00000000000000000000000000000000000000000000000000000000000000000000000000000000000000000000000000000000000000000000000000000000000000000000000000000000000000000000000000000000000000000000000000000000000000000000000000000000000000000000000000000000000000000000000000000000000000000000000000000000000000000000000000000000000000000000000000000000000000000000000000000000000000000000000000000000000000000000000000000000000000000000000000000000000000000000000000000000000000000000000000000000000000000000000000000000",
      "type": "0x2",
      "transactionHash": "0x698da2be3a0cdd1929f27afb5e567faad4e48265f3876a8f4cb2b5cffcb7bd12",
      "transactionIndex": "0x77",
      "blockHash": "0xf6d9ce1df445978b681bb7d1cdc3da8d6a8af99df2e465365f07d8fdd3877caa",
      "blockNumber": "0xa2d9b7",
      "gasUsed": "0x1bc32",
      "effectiveGasPrice": "0x3ce165a",
      "from": "0x36716c8c5d1ae680c78bd0ecc230896556399713",
      "to": "0x20c20889815e89b43400c330955c100cea480ead",
      "contractAddress": null
    },
    {
      "status": "0x1",
      "cumulativeGasUsed": "0x23bfd4f",
      "logs": [
        {
          "address": "0x74e6781dda5a0d98f8bb55abf1bd12b42666af76",
          "topics": [
            "0x448c9e468356cb0a190847cd719d650ac16427967e05c5a395ad05680e6e8295",
            "0x000000000000000000000000000000000000000000000000ccf0a31a221f3c9b"
          ],
          "data": "0x",
          "blockHash": "0xf6d9ce1df445978b681bb7d1cdc3da8d6a8af99df2e465365f07d8fdd3877caa",
          "blockNumber": "0xa2d9b7",
          "blockTimestamp": "0x69e11728",
          "transactionHash": "0x0f960d2f68fc4d35ad0ef3c86ab3cb222c38639a499eb8649aa012895de63b68",
          "transactionIndex": "0x78",
          "logIndex": "0x25e",
          "removed": false
        }
      ],
      "logsBloom": "0x00000000000000000000000000000000000000000001000000000000000000000000000000000000000000000000000000000000000000004000000000000000000000000400000000000000000000000000000000000000000000000000000000000000000000000000000000000000000000000000000000000000000000000000000000000000000000000000000000000000000000000000000000000000020000000000000000000000000000000000000000000000040000000000000000000000000000000000000000000000000000000000000000000800000000000000020000000000000000000000002000000100000000000000000000000000",
      "type": "0x2",
      "transactionHash": "0x0f960d2f68fc4d35ad0ef3c86ab3cb222c38639a499eb8649aa012895de63b68",
      "transactionIndex": "0x78",
      "blockHash": "0xf6d9ce1df445978b681bb7d1cdc3da8d6a8af99df2e465365f07d8fdd3877caa",
      "blockNumber": "0xa2d9b7",
      "gasUsed": "0x16793",
      "effectiveGasPrice": "0x3ce165a",
      "from": "0x36716c8c5d1ae680c78bd0ecc230896556399713",
      "to": "0x74e6781dda5a0d98f8bb55abf1bd12b42666af76",
      "contractAddress": null
    },
    {
      "status": "0x1",
      "cumulativeGasUsed": "0x23dbf44",
      "logs": [
        {
          "address": "0x902d11abdf1bf2bb8f930833d4f266af42cafd60",
          "topics": [
            "0x58dcce6fd4fa5544073984991087348ec3df2d2ec6dc1a2c775384e01181d17c",
            "0x000000000000000000000000000000000000000000000000ccf0a31a221f3c9b"
          ],
          "data": "0x000000000000000000000000609c888353aebec4c4971a5d05af4e92a94b1caa",
          "blockHash": "0xf6d9ce1df445978b681bb7d1cdc3da8d6a8af99df2e465365f07d8fdd3877caa",
          "blockNumber": "0xa2d9b7",
          "blockTimestamp": "0x69e11728",
          "transactionHash": "0x9c8b9e7ced0936960e49df32281f9465df7edc4364648f7bfbc9367f41273087",
          "transactionIndex": "0x79",
          "logIndex": "0x25f",
          "removed": false
        }
      ],
      "logsBloom": "0x00000000000000000000000000000000000000000000000000000000000000000000000040000000000000000000000000000000000000000000000000000100000000000400000000000000000040000000000000000000000000000000000000000020000000000000000000000000000000000000000000000000000000000000000000000000000000000000000000000000000000000000000000000000000000000000000000000000000000000000000000000000000000000000000000000000000000800000000000000000000000000000000400000800000000000000000000000000000000000000002000000000000000000000000000000000",
      "type": "0x2",
      "transactionHash": "0x9c8b9e7ced0936960e49df32281f9465df7edc4364648f7bfbc9367f41273087",
      "transactionIndex": "0x79",
      "blockHash": "0xf6d9ce1df445978b681bb7d1cdc3da8d6a8af99df2e465365f07d8fdd3877caa",
      "blockNumber": "0xa2d9b7",
      "gasUsed": "0x1c1f5",
      "effectiveGasPrice": "0x3ce165a",
      "from": "0x36716c8c5d1ae680c78bd0ecc230896556399713",
      "to": "0x902d11abdf1bf2bb8f930833d4f266af42cafd60",
      "contractAddress": null
    },
    {
      "status": "0x1",
      "cumulativeGasUsed": "0x23f80d2",
      "logs": [
        {
          "address": "0xd8d301955aeba52b81ed83a40f5571812c2c76e9",
          "topics": [
            "0x58dcce6fd4fa5544073984991087348ec3df2d2ec6dc1a2c775384e01181d17c",
            "0x000000000000000000000000000000000000000000000000ccf0a31a221f3c9b"
          ],
          "data": "0x0000000000000000000000001d4f7b04cef73849f33ea0f87c67f876b09bd36d",
          "blockHash": "0xf6d9ce1df445978b681bb7d1cdc3da8d6a8af99df2e465365f07d8fdd3877caa",
          "blockNumber": "0xa2d9b7",
          "blockTimestamp": "0x69e11728",
          "transactionHash": "0x5d52c87a300b9dc0de15f2cc35925a1d8985c6dc6cb29691deb572336a74b8a5",
          "transactionIndex": "0x7a",
          "logIndex": "0x260",
          "removed": false
        }
      ],
      "logsBloom": "0x00000000000000000000000000000000000000000000000000000000000000000000000040000000000000000000000000000000000000000000000000000000000000000400000000000800000040000000000000000000000000000000000000000020000400000000000000000000000000000000000000000000000000000000000000000000000000000000000000000000000000000000000000000000000000000000000000000000000000000000000000000000000000000000000000000000000000000000000000000000000000000000000000000800000000000000000000000200000000000000002000000000000000000000000000000000",
      "type": "0x2",
      "transactionHash": "0x5d52c87a300b9dc0de15f2cc35925a1d8985c6dc6cb29691deb572336a74b8a5",
      "transactionIndex": "0x7a",
      "blockHash": "0xf6d9ce1df445978b681bb7d1cdc3da8d6a8af99df2e465365f07d8fdd3877caa",
      "blockNumber": "0xa2d9b7",
      "gasUsed": "0x1c18e",
      "effectiveGasPrice": "0x3ce165a",
      "from": "0x36716c8c5d1ae680c78bd0ecc230896556399713",
      "to": "0xd8d301955aeba52b81ed83a40f5571812c2c76e9",
      "contractAddress": null
    }
  ],
  "libraries": [],
  "pending": [],
  "returns": {},
  "timestamp": 1776359208507,
  "chain": 11155111,
  "commit": "4c34f35"
}