{
  "transactions": [
    {
      "hash": "0x28970c9d65b31569580309739f91e4f12a7a7dbf7acc4080f60d43e471fcf2be",
      "transactionType": "CALL",
      "contractName": null,
      "contractAddress": "0x3a99a1b72d26f8e2c73700b1e41c39cf943bb986",
      "function": "addSupportedChain(uint64,address,address)",
      "arguments": [
        "16015286601757825753",
        "0x91896C7AD50c9f09A0D197Ed54860f94c5253c6e",
        "0x20c20889815E89b43400c330955C100Cea480eAd"
      ],
      "transaction": {
        "from": "0x36716c8c5d1ae680c78bd0ecc230896556399713",
        "to": "0x3a99a1b72d26f8e2c73700b1e41c39cf943bb986",
        "gas": "0x289a2",
        "value": "0x0",
        "input": "0x3e40b660000000000000000000000000000000000000000000000000de41ba4fc9d91ad900000000000000000000000091896c7ad50c9f09a0d197ed54860f94c5253c6e00000000000000000000000020c20889815e89b43400c330955c100cea480ead",
        "nonce": "0x32",
        "chainId": "0xa869"
      },
      "additionalContracts": [],
      "isFixedGasLimit": false
    },
    {
      "hash": "0x16fe06b0c09c87a16555bf3126fe6f5aeaba75974a395e1b12f94e167a6058dc",
      "transactionType": "CALL",
      "contractName": null,
      "contractAddress": "0x9140e4212c1934399cec160b2334580f6ad5c474",
      "function": "addRemoteChain(uint64)",
      "arguments": [
        "16015286601757825753"
      ],
      "transaction": {
        "from": "0x36716c8c5d1ae680c78bd0ecc230896556399713",
        "to": "0x9140e4212c1934399cec160b2334580f6ad5c474",
        "gas": "0x20de0",
        "value": "0x0",
        "input": "0x71af4edd000000000000000000000000000000000000000000000000de41ba4fc9d91ad9",
        "nonce": "0x33",
        "chainId": "0xa869"
      },
      "additionalContracts": [],
      "isFixedGasLimit": false
    },
    {
      "hash": "0x3779b95836821a96dc27f15c10457d794892ac6f1d8f0f063b7e3441b24c6bed",
      "transactionType": "CALL",
      "contractName": null,
      "contractAddress": "0x609c888353aebec4c4971a5d05af4e92a94b1caa",
      "function": "addPeer(uint64,address)",
      "arguments": [
        "16015286601757825753",
        "0x902d11Abdf1BF2bb8f930833d4f266Af42CAFD60"
      ],
      "transaction": {
        "from": "0x36716c8c5d1ae680c78bd0ecc230896556399713",
        "to": "0x609c888353aebec4c4971a5d05af4e92a94b1caa",
        "gas": "0x26d80",
        "value": "0x0",
        "input": "0xccfccdb7000000000000000000000000000000000000000000000000de41ba4fc9d91ad9000000000000000000000000902d11abdf1bf2bb8f930833d4f266af42cafd60",
        "nonce": "0x34",
        "chainId": "0xa869"
      },
      "additionalContracts": [],
      "isFixedGasLimit": false
    },
    {
      "hash": "0x3a8892c8c7eacf17253a036a6af5ca50f277260a9e543e51f70fdd3b840b36c2",
      "transactionType": "CALL",
      "contractName": null,
      "contractAddress": "0x1d4f7b04cef73849f33ea0f87c67f876b09bd36d",
      "function": "addPeer(uint64,address)",
      "arguments": [
        "16015286601757825753",
        "0xd8D301955Aeba52b81ed83A40F5571812C2C76e9"
      ],
      "transaction": {
        "from": "0x36716c8c5d1ae680c78bd0ecc230896556399713",
        "to": "0x1d4f7b04cef73849f33ea0f87c67f876b09bd36d",
        "gas": "0x26cf1",
        "value": "0x0",
        "input": "0xccfccdb7000000000000000000000000000000000000000000000000de41ba4fc9d91ad9000000000000000000000000d8d301955aeba52b81ed83a40f5571812c2c76e9",
        "nonce": "0x35",
        "chainId": "0xa869"
      },
      "additionalContracts": [],
      "isFixedGasLimit": false
    }
  ],
  "receipts": [
    {
      "status": "0x1",
      "cumulativeGasUsed": "0x1bc32",
      "logs": [],
      "logsBloom": "0x00000000000000000000000000000000000000000000000000000000000000000000000000000000000000000000000000000000000000000000000000000000000000000000000000000000000000000000000000000000000000000000000000000000000000000000000000000000000000000000000000000000000000000000000000000000000000000000000000000000000000000000000000000000000000000000000000000000000000000000000000000000000000000000000000000000000000000000000000000000000000000000000000000000000000000000000000000000000000000000000000000000000000000000000000000000",
      "type": "0x2",
      "transactionHash": "0x28970c9d65b31569580309739f91e4f12a7a7dbf7acc4080f60d43e471fcf2be",
      "transactionIndex": "0x0",
      "blockHash": "0x0bc6411abd0f8b61c67144278fb0e252969959a3728d425d06a597706de41f34",
      "blockNumber": "0x33b22a3",
      "gasUsed": "0x1bc32",
      "effectiveGasPrice": "0x3b9aca01",
      "from": "0x36716c8c5d1ae680c78bd0ecc230896556399713",
      "to": "0x3a99a1b72d26f8e2c73700b1e41c39cf943bb986",
      "contractAddress": null
    },
    {
      "status": "0x1",
      "cumulativeGasUsed": "0x323c5",
      "logs": [
        {
          "address": "0x9140e4212c1934399cec160b2334580f6ad5c474",
          "topics": [
            "0x448c9e468356cb0a190847cd719d650ac16427967e05c5a395ad05680e6e8295",
            "0x000000000000000000000000000000000000000000000000de41ba4fc9d91ad9"
          ],
          "data": "0x",
          "blockHash": "0x0bc6411abd0f8b61c67144278fb0e252969959a3728d425d06a597706de41f34",
          "blockNumber": "0x33b22a3",
          "transactionHash": "0x3779b95836821a96dc27f15c10457d794892ac6f1d8f0f063b7e3441b24c6bed",
          "transactionIndex": "0x1",
          "logIndex": "0x0",
          "removed": false
        }
      ],
      "logsBloom": "0x00000000000000000000000000000000000000000000000000000000000000000000000000004000000000000000000000000000000000004000000000000000000000000000000000000000000008000000000000000000000000000000000000000400000000000000000000010000000000000000000000000000000000000000000000000000000000000000000000000020000000000000000000000000000000000000000000000000000000000000000000000000040000000000000000000000000000000000000000000000000000000000000000000000000000000000020080000000000000000000000000000000000000000000000000000000",
      "type": "0x2",
      "transactionHash": "0x3779b95836821a96dc27f15c10457d794892ac6f1d8f0f063b7e3441b24c6bed",
      "transactionIndex": "0x1",
      "blockHash": "0x0bc6411abd0f8b61c67144278fb0e252969959a3728d425d06a597706de41f34",
      "blockNumber": "0x33b22a3",
      "gasUsed": "0x16793",
      "effectiveGasPrice": "0x3b9aca01",
      "from": "0x36716c8c5d1ae680c78bd0ecc230896556399713",
      "to": "0x9140e4212c1934399cec160b2334580f6ad5c474",
      "contractAddress": null
    },
    {
      "status": "0x1",
      "cumulativeGasUsed": "0x1c1f5",
      "logs": [
        {
          "address": "0x609c888353aebec4c4971a5d05af4e92a94b1caa",
          "topics": [
            "0x58dcce6fd4fa5544073984991087348ec3df2d2ec6dc1a2c775384e01181d17c",
            "0x000000000000000000000000000000000000000000000000de41ba4fc9d91ad9"
          ],
          "data": "0x000000000000000000000000902d11abdf1bf2bb8f930833d4f266af42cafd60",
          "blockHash": "0xe021ecadc132e967bc4fa3b7bd506f7ddb3473bf64c396bb1eeba741413c8ae4",
          "blockNumber": "0x33b22a4",
          "transactionHash": "0x16fe06b0c09c87a16555bf3126fe6f5aeaba75974a395e1b12f94e167a6058dc",
          "transactionIndex": "0x0",
          "logIndex": "0x0",
          "removed": false
        }
      ],
      "logsBloom": "0x00000000000000200000000000000000000000000000000000000000000000000000000040004000000000800000000000000000000000000000000000000000000000000000000000000000000040000000000000000000000000000000000000000020000000080000000000010000000000000000000000000000000000000000000000000000000000000000000000000020000000000000000000000000000000000000000000000000000000000000000000000000000000000000000000000000000000000000000000000000000000000000000000000000000000000000000000000000000000000000000000000000000000000000000000000000",
      "type": "0x2",
      "transactionHash": "0x16fe06b0c09c87a16555bf3126fe6f5aeaba75974a395e1b12f94e167a6058dc",
      "transactionIndex": "0x0",
      "blockHash": "0xe021ecadc132e967bc4fa3b7bd506f7ddb3473bf64c396bb1eeba741413c8ae4",
      "blockNumber": "0x33b22a4",
      "gasUsed": "0x1c1f5",
      "effectiveGasPrice": "0x3b9aca01",
      "from": "0x36716c8c5d1ae680c78bd0ecc230896556399713",
      "to": "0x609c888353aebec4c4971a5d05af4e92a94b1caa",
      "contractAddress": null
    },
    {
      "status": "0x1",
      "cumulativeGasUsed": "0x38383",
      "logs": [
        {
          "address": "0x1d4f7b04cef73849f33ea0f87c67f876b09bd36d",
          "topics": [
            "0x58dcce6fd4fa5544073984991087348ec3df2d2ec6dc1a2c775384e01181d17c",
            "0x000000000000000000000000000000000000000000000000de41ba4fc9d91ad9"
          ],
          "data": "0x000000000000000000000000d8d301955aeba52b81ed83a40f5571812c2c76e9",
          "blockHash": "0xe021ecadc132e967bc4fa3b7bd506f7ddb3473bf64c396bb1eeba741413c8ae4",
          "blockNumber": "0x33b22a4",
          "transactionHash": "0x3a8892c8c7eacf17253a036a6af5ca50f277260a9e543e51f70fdd3b840b36c2",
          "transactionIndex": "0x1",
          "logIndex": "0x1",
          "removed": false
        }
      ],
      "logsBloom": "0x00100000000000000000000000000000000000000000000000000000000000000000000040004000000000000000000000000000000000000000000000000000000000000000000000000000000040000000000000000000000000000000000000000020000000000000000000010000000000000000000000000000000000000000000000000000000000000000000040000020000000000000000000000000000000000000000000000000000000000000000000000000000000010000000000000000000000000000000000000000000000000000000000000000000000000000000000000000000000000000000000000000000000000000000000000000",
      "type": "0x2",
      "transactionHash": "0x3a8892c8c7eacf17253a036a6af5ca50f277260a9e543e51f70fdd3b840b36c2",
      "transactionIndex": "0x1",
      "blockHash": "0xe021ecadc132e967bc4fa3b7bd506f7ddb3473bf64c396bb1eeba741413c8ae4",
      "blockNumber": "0x33b22a4",
      "gasUsed": "0x1c18e",
      "effectiveGasPrice": "0x3b9aca01",
      "from": "0x36716c8c5d1ae680c78bd0ecc230896556399713",
      "to": "0x1d4f7b04cef73849f33ea0f87c67f876b09bd36d",
      "contractAddress": null
    }
  ],
  "libraries": [],
  "pending": [],
  "returns": {},
  "timestamp": 1776359268569,
  "chain": 43113,
  "commit": "4c34f35"
}